{
  "contractName": "CardList",
  "abi": [
    {
      "inputs": [],
      "payable": false,
      "stateMutability": "nonpayable",
      "type": "constructor"
    },
    {
      "constant": true,
      "inputs": [
        {
          "internalType": "uint256",
          "name": "",
          "type": "uint256"
        }
      ],
      "name": "cards",
      "outputs": [
        {
          "internalType": "string",
          "name": "imageHash",
          "type": "string"
        },
        {
          "internalType": "string",
          "name": "ipfsInfo",
          "type": "string"
        },
        {
          "internalType": "string",
          "name": "name",
          "type": "string"
        },
        {
          "internalType": "uint256",
          "name": "price",
          "type": "uint256"
        }
      ],
      "payable": false,
      "stateMutability": "view",
      "type": "function"
    },
    {
      "constant": true,
      "inputs": [],
      "name": "cardsCount",
      "outputs": [
        {
          "internalType": "uint256",
          "name": "",
          "type": "uint256"
        }
      ],
      "payable": false,
      "stateMutability": "view",
      "type": "function"
    },
    {
      "constant": false,
      "inputs": [
        {
          "internalType": "string",
          "name": "name",
          "type": "string"
        },
        {
          "internalType": "uint256",
          "name": "price",
          "type": "uint256"
        },
        {
          "internalType": "string",
          "name": "imageHash",
          "type": "string"
        },
        {
          "internalType": "string",
          "name": "ipfs",
          "type": "string"
        }
      ],
      "name": "createCard",
      "outputs": [],
      "payable": false,
      "stateMutability": "nonpayable",
      "type": "function"
    },
    {
      "constant": true,
      "inputs": [
        {
          "internalType": "uint256",
          "name": "id",
          "type": "uint256"
        }
      ],
      "name": "getCardById",
      "outputs": [
        {
          "internalType": "string",
          "name": "name",
          "type": "string"
        },
        {
          "internalType": "uint256",
          "name": "price",
          "type": "uint256"
        },
        {
          "internalType": "string",
          "name": "imageHash",
          "type": "string"
        },
        {
          "internalType": "string",
          "name": "ipfs",
          "type": "string"
        }
      ],
      "payable": false,
      "stateMutability": "view",
      "type": "function"
    }
  ],
  "bytecode": "0x608060405234801561001057600080fd5b5060008081905550610b53806100276000396000f3fe608060405234801561001057600080fd5b5060043610610069576000357c0100000000000000000000000000000000000000000000000000000000900480638dc107681461006e5780639077fe52146101f4578063bd6c67561461037a578063fd47401f14610398575b600080fd5b61009a6004803603602081101561008457600080fd5b810190808035906020019092919050505061058b565b60405180806020018060200180602001858152602001848103845288818151815260200191508051906020019080838360005b838110156100e85780820151818401526020810190506100cd565b50505050905090810190601f1680156101155780820380516001836020036101000a031916815260200191505b50848103835287818151815260200191508051906020019080838360005b8381101561014e578082015181840152602081019050610133565b50505050905090810190601f16801561017b5780820380516001836020036101000a031916815260200191505b50848103825286818151815260200191508051906020019080838360005b838110156101b4578082015181840152602081019050610199565b50505050905090810190601f1680156101e15780820380516001836020036101000a031916815260200191505b5097505050505050505060405180910390f35b6102206004803603602081101561020a57600080fd5b8101908080359060200190929190505050610783565b60405180806020018581526020018060200180602001848103845288818151815260200191508051906020019080838360005b8381101561026e578082015181840152602081019050610253565b50505050905090810190601f16801561029b5780820380516001836020036101000a031916815260200191505b50848103835286818151815260200191508051906020019080838360005b838110156102d45780820151818401526020810190506102b9565b50505050905090810190601f1680156103015780820380516001836020036101000a031916815260200191505b50848103825285818151815260200191508051906020019080838360005b8381101561033a57808201518184015260208101905061031f565b50505050905090810190601f1680156103675780820380516001836020036101000a031916815260200191505b5097505050505050505060405180910390f35b6103826109c6565b6040518082815260200191505060405180910390f35b610589600480360360808110156103ae57600080fd5b81019080803590602001906401000000008111156103cb57600080fd5b8201836020820111156103dd57600080fd5b803590602001918460018302840111640100000000831117156103ff57600080fd5b91908080601f016020809104026020016040519081016040528093929190818152602001838380828437600081840152601f19601f820116905080830192505050505050509192919290803590602001909291908035906020019064010000000081111561046c57600080fd5b82018360208201111561047e57600080fd5b803590602001918460018302840111640100000000831117156104a057600080fd5b91908080601f016020809104026020016040519081016040528093929190818152602001838380828437600081840152601f19601f8201169050808301925050505050505091929192908035906020019064010000000081111561050357600080fd5b82018360208201111561051557600080fd5b8035906020019184600183028401116401000000008311171561053757600080fd5b91908080601f016020809104026020016040519081016040528093929190818152602001838380828437600081840152601f19601f8201169050808301925050505050505091929192905050506109cc565b005b6001602052806000526040600020600091509050806000018054600181600116156101000203166002900480601f0160208091040260200160405190810160405280929190818152602001828054600181600116156101000203166002900480156106375780601f1061060c57610100808354040283529160200191610637565b820191906000526020600020905b81548152906001019060200180831161061a57829003601f168201915b505050505090806001018054600181600116156101000203166002900480601f0160208091040260200160405190810160405280929190818152602001828054600181600116156101000203166002900480156106d55780601f106106aa576101008083540402835291602001916106d5565b820191906000526020600020905b8154815290600101906020018083116106b857829003601f168201915b505050505090806002018054600181600116156101000203166002900480601f0160208091040260200160405190810160405280929190818152602001828054600181600116156101000203166002900480156107735780601f1061074857610100808354040283529160200191610773565b820191906000526020600020905b81548152906001019060200180831161075657829003601f168201915b5050505050908060030154905084565b606060006060806001600086815260200190815260200160002060020160016000878152602001908152602001600020600301546001600088815260200190815260200160002060000160016000898152602001908152602001600020600101838054600181600116156101000203166002900480601f0160208091040260200160405190810160405280929190818152602001828054600181600116156101000203166002900480156108785780601f1061084d57610100808354040283529160200191610878565b820191906000526020600020905b81548152906001019060200180831161085b57829003601f168201915b50505050509350818054600181600116156101000203166002900480601f0160208091040260200160405190810160405280929190818152602001828054600181600116156101000203166002900480156109145780601f106108e957610100808354040283529160200191610914565b820191906000526020600020905b8154815290600101906020018083116108f757829003601f168201915b50505050509150808054600181600116156101000203166002900480601f0160208091040260200160405190810160405280929190818152602001828054600181600116156101000203166002900480156109b05780601f10610985576101008083540402835291602001916109b0565b820191906000526020600020905b81548152906001019060200180831161099357829003601f168201915b5050505050905093509350935093509193509193565b60005481565b604051806080016040528083815260200182815260200185815260200184815250600160008060008154809291906001019190505581526020019081526020016000206000820151816000019080519060200190610a2b929190610a79565b506020820151816001019080519060200190610a48929190610a79565b506040820151816002019080519060200190610a65929190610a79565b506060820151816003015590505050505050565b828054600181600116156101000203166002900490600052602060002090601f016020900481019282601f10610aba57805160ff1916838001178555610ae8565b82800160010185558215610ae8579182015b82811115610ae7578251825591602001919060010190610acc565b5b509050610af59190610af9565b5090565b610b1b91905b80821115610b17576000816000905550600101610aff565b5090565b9056fea265627a7a72315820bb72780ab5a0c0e8560095f782ea385993a1b8bfcd06b7b77849eb59c407019564736f6c63430005100032",
  "source": "pragma solidity >=0.4.22 <0.9.0;\r\n\r\ncontract CardList{\r\n    uint public cardsCount;\r\n\r\n    struct Card {\r\n        string imageHash;\r\n        string ipfsInfo;\r\n\r\n        string name;\r\n        uint price;\r\n    }\r\n\r\n    constructor() public {\r\n        cardsCount = 0;\r\n    }\r\n\r\n    mapping(uint => Card) public cards;\r\n\r\n    function createCard(string memory name, uint price, string memory imageHash, string memory ipfs) public {\r\n        cards[cardsCount++] = Card(\r\n            imageHash, \r\n            ipfs,\r\n            name,\r\n            price\r\n        );\r\n    }\r\n\r\n    function getCardById(uint id) public view returns (string memory name, uint price, string memory imageHash, string memory ipfs)  {\r\n        return (cards[id].name, cards[id].price, cards[id].imageHash, cards[id].ipfsInfo);\r\n    }\r\n}\r\n\r\n// contract Card {\r\n//     mapping(address => Image[]) private image;\r\n//     string public name;\r\n//     uint public price;\r\n\r\n//     constructor() public {\r\n//         name = \"default\";\r\n//         price = 0;\r\n//     }\r\n\r\n//     struct Image {\r\n//         string imageHash;\r\n//         string ipfsInfo;\r\n//     }\r\n \r\n//     function uploadImage(string memory imageHash, string memory ipfs) public{\r\n//        image[msg.sender].push(Image(imageHash, ipfs));\r\n//     }\r\n\r\n//     function setName(string memory nm) public {\r\n//         name = nm;\r\n//     }\r\n\r\n//     function setPrice(uint pr) public {\r\n//         price = pr;\r\n//     }\r\n// }",
  "sourcePath": "D:\\dump\\flutter_projects\\flutter_nft_market\\contracts\\CardList.sol",
  "compiler": {
    "name": "solc",
    "version": "0.5.16+commit.9c3226ce.Emscripten.clang"
  },
  "schemaVersion": "3.4.7",
  "updatedAt": "2022-06-18T10:40:26.876Z",
  "devdoc": {
    "methods": {}
  },
  "userdoc": {
    "methods": {}
  }
}