{
  "contractName": "CardList",
  "abi": [
    {
      "inputs": [],
      "payable": false,
      "stateMutability": "nonpayable",
      "type": "constructor"
    },
    {
      "constant": true,
      "inputs": [
        {
          "internalType": "uint256",
          "name": "",
          "type": "uint256"
        }
      ],
      "name": "cards",
      "outputs": [
        {
          "internalType": "string",
          "name": "imageUrl",
          "type": "string"
        },
        {
          "internalType": "string",
          "name": "title",
          "type": "string"
        },
        {
          "internalType": "uint256",
          "name": "manaCost",
          "type": "uint256"
        },
        {
          "internalType": "uint256",
          "name": "damage",
          "type": "uint256"
        },
        {
          "internalType": "uint256",
          "name": "health",
          "type": "uint256"
        },
        {
          "internalType": "uint256",
          "name": "price",
          "type": "uint256"
        }
      ],
      "payable": false,
      "stateMutability": "view",
      "type": "function"
    },
    {
      "constant": true,
      "inputs": [],
      "name": "cardsCount",
      "outputs": [
        {
          "internalType": "uint256",
          "name": "",
          "type": "uint256"
        }
      ],
      "payable": false,
      "stateMutability": "view",
      "type": "function"
    },
    {
      "constant": false,
      "inputs": [
        {
          "internalType": "string",
          "name": "title",
          "type": "string"
        },
        {
          "internalType": "uint256",
          "name": "price",
          "type": "uint256"
        },
        {
          "internalType": "string",
          "name": "imageUrl",
          "type": "string"
        },
        {
          "internalType": "uint256",
          "name": "manaCost",
          "type": "uint256"
        },
        {
          "internalType": "uint256",
          "name": "damage",
          "type": "uint256"
        },
        {
          "internalType": "uint256",
          "name": "health",
          "type": "uint256"
        }
      ],
      "name": "createCard",
      "outputs": [],
      "payable": false,
      "stateMutability": "nonpayable",
      "type": "function"
    },
    {
      "constant": true,
      "inputs": [
        {
          "internalType": "uint256",
          "name": "id",
          "type": "uint256"
        }
      ],
      "name": "getCardById",
      "outputs": [
        {
          "internalType": "string",
          "name": "title",
          "type": "string"
        },
        {
          "internalType": "uint256",
          "name": "price",
          "type": "uint256"
        },
        {
          "internalType": "string",
          "name": "imageUrl",
          "type": "string"
        },
        {
          "internalType": "uint256",
          "name": "manaCost",
          "type": "uint256"
        },
        {
          "internalType": "uint256",
          "name": "damage",
          "type": "uint256"
        },
        {
          "internalType": "uint256",
          "name": "health",
          "type": "uint256"
        }
      ],
      "payable": false,
      "stateMutability": "view",
      "type": "function"
    }
  ],
  "bytecode": "0x608060405234801561001057600080fd5b506000808190555061094c806100276000396000f3fe608060405234801561001057600080fd5b5060043610610069576000357c010000000000000000000000000000000000000000000000000000000090048063253baf691461006e5780638dc10768146101e85780639077fe5214610317578063bd6c675614610446575b600080fd5b6101e6600480360360c081101561008457600080fd5b81019080803590602001906401000000008111156100a157600080fd5b8201836020820111156100b357600080fd5b803590602001918460018302840111640100000000831117156100d557600080fd5b91908080601f016020809104026020016040519081016040528093929190818152602001838380828437600081840152601f19601f820116905080830192505050505050509192919290803590602001909291908035906020019064010000000081111561014257600080fd5b82018360208201111561015457600080fd5b8035906020019184600183028401116401000000008311171561017657600080fd5b91908080601f016020809104026020016040519081016040528093929190818152602001838380828437600081840152601f19601f820116905080830192505050505050509192919290803590602001909291908035906020019092919080359060200190929190505050610464565b005b610214600480360360208110156101fe57600080fd5b8101908080359060200190929190505050610520565b604051808060200180602001878152602001868152602001858152602001848152602001838103835289818151815260200191508051906020019080838360005b83811015610270578082015181840152602081019050610255565b50505050905090810190601f16801561029d5780820380516001836020036101000a031916815260200191505b50838103825288818151815260200191508051906020019080838360005b838110156102d65780820151818401526020810190506102bb565b50505050905090810190601f1680156103035780820380516001836020036101000a031916815260200191505b509850505050505050505060405180910390f35b6103436004803603602081101561032d57600080fd5b810190808035906020019092919050505061068c565b604051808060200187815260200180602001868152602001858152602001848152602001838103835289818151815260200191508051906020019080838360005b8381101561039f578082015181840152602081019050610384565b50505050905090810190601f1680156103cc5780820380516001836020036101000a031916815260200191505b50838103825287818151815260200191508051906020019080838360005b838110156104055780820151818401526020810190506103ea565b50505050905090810190601f1680156104325780820380516001836020036101000a031916815260200191505b509850505050505050505060405180910390f35b61044e61086c565b6040518082815260200191505060405180910390f35b6040518060c00160405280858152602001878152602001848152602001838152602001828152602001868152506001600080600081548092919060010191905055815260200190815260200160002060008201518160000190805190602001906104cf929190610872565b5060208201518160010190805190602001906104ec929190610872565b5060408201518160020155606082015181600301556080820151816004015560a08201518160050155905050505050505050565b6001602052806000526040600020600091509050806000018054600181600116156101000203166002900480601f0160208091040260200160405190810160405280929190818152602001828054600181600116156101000203166002900480156105cc5780601f106105a1576101008083540402835291602001916105cc565b820191906000526020600020905b8154815290600101906020018083116105af57829003601f168201915b505050505090806001018054600181600116156101000203166002900480601f01602080910402602001604051908101604052809291908181526020018280546001816001161561010002031660029004801561066a5780601f1061063f5761010080835404028352916020019161066a565b820191906000526020600020905b81548152906001019060200180831161064d57829003601f168201915b5050505050908060020154908060030154908060040154908060050154905086565b6060600060606000806000600160008881526020019081526020016000206001016001600089815260200190815260200160002060050154600160008a8152602001908152602001600020600001600160008b815260200190815260200160002060020154600160008c815260200190815260200160002060030154600160008d815260200190815260200160002060040154858054600181600116156101000203166002900480601f0160208091040260200160405190810160405280929190818152602001828054600181600116156101000203166002900480156107b45780601f10610789576101008083540402835291602001916107b4565b820191906000526020600020905b81548152906001019060200180831161079757829003601f168201915b50505050509550838054600181600116156101000203166002900480601f0160208091040260200160405190810160405280929190818152602001828054600181600116156101000203166002900480156108505780601f1061082557610100808354040283529160200191610850565b820191906000526020600020905b81548152906001019060200180831161083357829003601f168201915b5050505050935095509550955095509550955091939550919395565b60005481565b828054600181600116156101000203166002900490600052602060002090601f016020900481019282601f106108b357805160ff19168380011785556108e1565b828001600101855582156108e1579182015b828111156108e05782518255916020019190600101906108c5565b5b5090506108ee91906108f2565b5090565b61091491905b808211156109105760008160009055506001016108f8565b5090565b9056fea265627a7a72315820008b240a8bb8a142dac0d51874ff3a1ed9f682b579b59eda2567562a5b1ced6864736f6c63430005100032",
  "source": "pragma solidity >=0.4.22 <0.9.0;\r\n\r\ncontract CardList{\r\n    uint public cardsCount;\r\n\r\n    struct Card {\r\n        string imageUrl;\r\n        string title;\r\n        uint manaCost;\r\n        uint damage;\r\n        uint health;\r\n        uint price;\r\n    }\r\n\r\n    constructor() public {\r\n        cardsCount = 0;\r\n    }\r\n\r\n    mapping(uint => Card) public cards;\r\n\r\n    function createCard(string memory title, uint price, string memory imageUrl, uint manaCost, uint damage, uint health) public {\r\n        cards[cardsCount++] = Card(\r\n            imageUrl,\r\n            title,\r\n            manaCost,\r\n            damage,\r\n            health,\r\n            price\r\n        );\r\n    }\r\n\r\n    function getCardById(uint id) public view returns (string memory title, uint price, string memory imageUrl, uint manaCost, uint damage, uint health)  {\r\n        return (cards[id].title, cards[id].price, cards[id].imageUrl, cards[id].manaCost, cards[id].damage, cards[id].health);\r\n    }\r\n}",
  "sourcePath": "D:\\dump\\flutter_projects\\flutter_nft_market\\contracts\\CardList.sol",
  "compiler": {
    "name": "solc",
    "version": "0.5.16+commit.9c3226ce.Emscripten.clang"
  },
  "schemaVersion": "3.4.7",
  "updatedAt": "2022-06-18T20:29:18.061Z",
  "devdoc": {
    "methods": {}
  },
  "userdoc": {
    "methods": {}
  }
}