{
  "contractName": "Card",
  "abi": [
    {
      "inputs": [],
      "payable": false,
      "stateMutability": "nonpayable",
      "type": "constructor"
    },
    {
      "constant": true,
      "inputs": [],
      "name": "name",
      "outputs": [
        {
          "internalType": "string",
          "name": "",
          "type": "string"
        }
      ],
      "payable": false,
      "stateMutability": "view",
      "type": "function"
    },
    {
      "constant": true,
      "inputs": [],
      "name": "price",
      "outputs": [
        {
          "internalType": "uint256",
          "name": "",
          "type": "uint256"
        }
      ],
      "payable": false,
      "stateMutability": "view",
      "type": "function"
    },
    {
      "constant": false,
      "inputs": [
        {
          "internalType": "string",
          "name": "imageHash",
          "type": "string"
        },
        {
          "internalType": "string",
          "name": "ipfs",
          "type": "string"
        }
      ],
      "name": "uploadImage",
      "outputs": [],
      "payable": false,
      "stateMutability": "nonpayable",
      "type": "function"
    },
    {
      "constant": false,
      "inputs": [
        {
          "internalType": "string",
          "name": "nm",
          "type": "string"
        }
      ],
      "name": "setName",
      "outputs": [],
      "payable": false,
      "stateMutability": "nonpayable",
      "type": "function"
    },
    {
      "constant": false,
      "inputs": [
        {
          "internalType": "uint256",
          "name": "pr",
          "type": "uint256"
        }
      ],
      "name": "setPrice",
      "outputs": [],
      "payable": false,
      "stateMutability": "nonpayable",
      "type": "function"
    }
  ],
  "bytecode": "0x608060405234801561001057600080fd5b506040518060400160405280600781526020017f64656661756c74000000000000000000000000000000000000000000000000008152506001908051906020019061005c92919061006a565b50600060028190555061010f565b828054600181600116156101000203166002900490600052602060002090601f016020900481019282601f106100ab57805160ff19168380011785556100d9565b828001600101855582156100d9579182015b828111156100d85782518255916020019190600101906100bd565b5b5090506100e691906100ea565b5090565b61010c91905b808211156101085760008160009055506001016100f0565b5090565b90565b6106368061011e6000396000f3fe608060405234801561001057600080fd5b5060043610610074576000357c01000000000000000000000000000000000000000000000000000000009004806306fdde031461007957806391b7f5ed146100fc578063a035b1fe1461012a578063a91b831414610148578063c47f00271461029a575b600080fd5b610081610355565b6040518080602001828103825283818151815260200191508051906020019080838360005b838110156100c15780820151818401526020810190506100a6565b50505050905090810190601f1680156100ee5780820380516001836020036101000a031916815260200191505b509250505060405180910390f35b6101286004803603602081101561011257600080fd5b81019080803590602001909291905050506103f3565b005b6101326103fd565b6040518082815260200191505060405180910390f35b6102986004803603604081101561015e57600080fd5b810190808035906020019064010000000081111561017b57600080fd5b82018360208201111561018d57600080fd5b803590602001918460018302840111640100000000831117156101af57600080fd5b91908080601f016020809104026020016040519081016040528093929190818152602001838380828437600081840152601f19601f8201169050808301925050505050505091929192908035906020019064010000000081111561021257600080fd5b82018360208201111561022457600080fd5b8035906020019184600183028401116401000000008311171561024657600080fd5b91908080601f016020809104026020016040519081016040528093929190818152602001838380828437600081840152601f19601f820116905080830192505050505050509192919290505050610403565b005b610353600480360360208110156102b057600080fd5b81019080803590602001906401000000008111156102cd57600080fd5b8201836020820111156102df57600080fd5b8035906020019184600183028401116401000000008311171561030157600080fd5b91908080601f016020809104026020016040519081016040528093929190818152602001838380828437600081840152601f19601f8201169050808301925050505050505091929192905050506104c2565b005b60018054600181600116156101000203166002900480601f0160208091040260200160405190810160405280929190818152602001828054600181600116156101000203166002900480156103eb5780601f106103c0576101008083540402835291602001916103eb565b820191906000526020600020905b8154815290600101906020018083116103ce57829003601f168201915b505050505081565b8060028190555050565b60025481565b6000803373ffffffffffffffffffffffffffffffffffffffff1673ffffffffffffffffffffffffffffffffffffffff16815260200190815260200160002060405180604001604052808481526020018381525090806001815401808255809150509060018203906000526020600020906002020160009091929091909150600082015181600001908051906020019061049d9291906104dc565b5060208201518160010190805190602001906104ba9291906104dc565b505050505050565b80600190805190602001906104d892919061055c565b5050565b828054600181600116156101000203166002900490600052602060002090601f016020900481019282601f1061051d57805160ff191683800117855561054b565b8280016001018555821561054b579182015b8281111561054a57825182559160200191906001019061052f565b5b50905061055891906105dc565b5090565b828054600181600116156101000203166002900490600052602060002090601f016020900481019282601f1061059d57805160ff19168380011785556105cb565b828001600101855582156105cb579182015b828111156105ca5782518255916020019190600101906105af565b5b5090506105d891906105dc565b5090565b6105fe91905b808211156105fa5760008160009055506001016105e2565b5090565b9056fea265627a7a72315820965a585753458b267352c64b84d9da71bbe2a976eddf4678cd700e7814b9757164736f6c63430005100032",
  "source": "pragma solidity >=0.4.22 <0.9.0;\r\n\r\ncontract Card {\r\n    mapping(address => Image[]) private image;\r\n    string public name;\r\n    uint public price;\r\n\r\n    constructor() public {\r\n        name = \"default\";\r\n        price = 0;\r\n    }\r\n\r\n    struct Image {\r\n        string imageHash;\r\n        string ipfsInfo;\r\n    }\r\n \r\n    \r\n\r\n    function uploadImage(string memory imageHash, string memory ipfs) public{\r\n       image[msg.sender].push(Image(imageHash, ipfs));\r\n    }\r\n\r\n    function setName(string memory nm) public {\r\n        name = nm;\r\n    }\r\n\r\n    function setPrice(uint pr) public {\r\n        price = pr;\r\n    }\r\n}",
  "sourcePath": "D:\\dump\\flutter_projects\\flutter_nft_market\\contracts\\Card.sol",
  "compiler": {
    "name": "solc",
    "version": "0.5.16+commit.9c3226ce.Emscripten.clang"
  },
  "schemaVersion": "3.4.7",
  "updatedAt": "2022-06-18T09:23:34.527Z",
  "devdoc": {
    "methods": {}
  },
  "userdoc": {
    "methods": {}
  }
}